:100000000C94A2010C94BF010C94BF010C94BF018D
:100010000C94BF010C94BF010C94BF010C94BF0160
:100020000C94BF010C94BF010C9481050C94BC0589
:100030000C94BF010C94BF010C94BF010C94BF0140
:100040000C94BF010C94BF010C94BF010C94BF0130
:100050000C94BF010C94BF010C94BF010C94BF0120
:100060000C94BF010C94BF010C94BF010C94BF0110
:100070000C94BF010C94BF010C94BF010C94BF0100
:100080000C94BF010C94BF010C94BF010C94BF01F0
:100090000C94BF010C94BF010C94BF010C94BF01E0
:1000A0000C94BF010C94BF010C94BF0116051305FD
:1000B00010050D050A05070504050105FE04FB04EE
:1000C000F804F504F204EF04EC04E904E604E304A4
:1000D000E004DD04DA04D704D404D104CE04CB0454
:1000E000C804C504C204BF04BC04B904B604B30404
:1000F000B004AD04AA04A704A404A1049E049B04B4
:100100009804950492048F048C0489048604830463
:1001100080047D047A047704740471046E046B0413
:100120006804650462045F045C0459045604084AC8
:10013000D73B3BCE016E84BCBFFDC12F3D6C7431FB
:100140009ABD56833DDA3D00C77F11BED9E4BB4C52
:100150003E916BAAAABE000000803F05A84CCDB21C
:10016000D44EB93836A9020C50B9918688083CA6FD
:10017000AAAA2ABE000000803F00010000AD0112C3
:1001800000020000BF01430003000002020401035B
:100190000904060214020309041C021603030904DD
:1001A00034020C0001C112018036018136120100B7
:1001B0000202000010C0167A0400010102030109C6
:1001C000024300020100C0320904000001020201E2
:1001D0000005240010010524010101042402060584
:1001E00024060001070582031000400904010002F3
:1001F0000A000000070503024000000705840240D2
:10020000000004030904140359006F007500720014
:1002100020004E0061006D006500000016035500CF
:100220005300420020005300650072006900610025
:100230006C0000000C033100320033003400350044
:1002400000006E616E00696E660000407A10F35A1D
:1002500000A0724E18090010A5D4E80000E8764806
:10026000170000E40B54020000CA9A3B000000E1B2
:10027000F505000080969800000040420F00000045
:10028000A08601000000102700000000E803000025
:1002900000006400000000000A00000000000100EF
:1002A000000000002C76D888DC674F0823DFC1DF10
:1002B000AE59E1B1B796E5E3E453C63AE651997613
:1002C00096E8E6C28426EB898C9B62ED407C6FFC4D
:1002D000EFBC9C9F40F2BAA56FA5F490055A2AF78F
:1002E0005C936B6CF9676DC11BFCE0E40D47FEF598
:1002F00020E6B500D0ED902E030094357705008000
:10030000841E080000204E0A000000C80C3333335E
:10031000330F986E12831141EF8D2114893BE655FE
:1003200016CFFEE6DB18D1844B381BF77C1D901DE1
:10033000A4BBE424203284725E228100C9F124EC43
:10034000A1E53D2711241FBECFEFDAE0DEBFCDBF10
:1003500011E0A0E0B1E0E6E8FFE202C005900D92F6
:10036000A031B107D9F711E0A0E1B1E001C01D92C1
:10037000A431B107E1F70E940D030C94C1170C944E
:100380000000EF92FF920F931F93DF93CF93CDB7AF
:10039000DEB76C970FB6F894DEBF0FBECDBF4BE152
:1003A00050E05A8349838AE795E6A9EBB1E48B8351
:1003B0009C83AD83BE8373E57F8329E930E0398771
:1003C00028878BE692E8A8E2BDE38A879B87AC8703
:1003D000BD8765E46E87588B4F8781E99FE0AAEB64
:1003E000B1E4898B9A8BAB8BBC8B7D8B3F8B2E8B37
:1003F0008AE890EBA1EABDE3888F998FAA8FBB8F23
:100400006C8F8FE0E82EF12CEC0EFD1E8E010F5F3D
:100410001F4F0E9453031816E4F7C801B7010E944A
:100420000C090E9427078AE00E94A6038AE00E9426
:10043000A6038DE00E94A603C801B7010E943908F7
:100440000E9427078AE00E94A6038AE00E94A60372
:100450008DE00E94A603DDCF0F931F938C01FC015A
:10046000808191810E946D078AE30E94A603F801B2
:10047000828193810E946D078AE30E94A603F8019E
:10048000848195810E946D07F80184850E94A603EE
:100490008AE00E94A6038DE00E94A603F8018585EC
:1004A00096850E946D078DE20E94A603F80167857C
:1004B0007089818992890E942707F80183890E94A7
:1004C000A6038AE00E94A6038DE00E94A603F8011D
:1004D000848995890E946D078DE20E94A603F80128
:1004E00066897789808D918D0E942707F801828D1A
:1004F0000E94A6038AE00E94A6038DE00E94A60344
:10050000F80183A194A10E946D078AE00E94A603CE
:100510008DE00E94A603F801868197810E946D07F5
:100520008FE20E94A603F801808591850E946D07E5
:100530008FE20E94A603F801828593850E946D07D1
:10054000F801838D0E94A6038AE00E94A6038AE038
:100550000E94A6038DE00E94A603F801858D968D6A
:100560000E946D07F801878D0E94A6038AE00E9411
:10057000A6038DE00E94A603F80180A191A10E942C
:100580006D07F80182A10E94A6038AE00E94A603DB
:100590008DE00E94A603F80183A194A10E946D073B
:1005A000F80185A10E94A6038AE00E94A6038DE0BF
:1005B0000E94A603F80186A197A10E946D07F80189
:1005C00080A50E94A6038AE00E94A6038DE00E94F7
:1005D000A603F801848D0E94A6038AE00E94A60368
:1005E0008AE00E94A6038AE00E94A6038DE00E9492
:1005F000A6031F910F910895CF93DF93EC010E9402
:1006000053031816E4F7CE010E942C02CE010E947B
:10061000F20ECE010E942C02F2CF0F931F93DF93B4
:10062000CF93CDB7DEB7A9970FB6F894DEBF0FBE54
:10063000CDBFE1E6F0E080E8808381E080830E9426
:1006400037038E010F5F1F4FC8010E943E0FC80184
:100650000E94FC0280E090E0A9960FB6F894DEBFFD
:100660000FBECDBFCF91DF911F910F91089581E013
:100670008093D70080EA8093D80082E189BD09B4D5
:1006800000FEFDCF80E98093D8001092E000109228
:100690001001109211018CE08093E200789408958B
:1006A0008091100108952FB7F8948091100188234C
:1006B00069F083E08093E9009BE68091E80085FD86
:1006C00009C082FF03C09093E800F7CF2FBF2FEF40
:1006D0003FEF0CC09091F1008091E80085FD03C0D0
:1006E0008BE68093E8002FBF292F30E0C9010895E1
:1006F0002FB7F89480911001882311F490E010C076
:1007000083E08093E9009091F200992349F480916D
:10071000E80082FF05C085FD03C08BE68093E800FA
:100720002FBF892F089580911001882371F09FB702
:10073000F89483E08093E9002BE602C02093E80060
:100740008091E80085FDFACF9FBF0895482F8091E2
:1007500010018823D9F12FB7F89484E08093E90041
:1007600080911301882341F08091E80085FD02C04B
:100770002FBF12C0109213019091E400975E34E0F5
:100780008091E80085FD13C02FBF8091E400891798
:1007900029F481E0809313018FEF08958091100177
:1007A0008823A1F02FB7F8943093E900E9CF409364
:1007B000F1008091E80085FD03C08AE38093E800A2
:1007C00085E0809312012FBF80E008958FEF089598
:1007D000282F80911001882351F09FB7F89484E06E
:1007E0008093E9008091E80085FD03C09FBF8FEFF3
:1007F00008952093F1008091E80085FD03C08AE30D
:100800008093E80085E0809312019FBF80E0089507
:10081000CF93DF93EC0180911001882309F41CC170
:100820003FB7F89484E08093E90080911301882316
:1008300009F408C18091E80085FD02C03FBF0CC1EA
:1008400010921301FFC09091E400975E8091E80040
:1008500085FD13C03FBF8091E400891721F481E03A
:1008600080931301F9C080911001882309F4F4C02A
:100870003FB7F894B093E900E9CF8091F200242FBC
:10088000281B822F90E06817790708F4262F822F03
:1008900090E08134910508F0C6C08A5A9F4FFC0150
:1008A000EE0FFF1F0590F491E02D0994899180933C
:1008B000F10089918093F10089918093F1008991F1
:1008C0008093F10089918093F10089918093F100E8
:1008D00089918093F10089918093F10089918093AF
:1008E000F10089918093F10089918093F1008991C1
:1008F0008093F10089918093F10089918093F100B8
:1009000089918093F10089918093F100899180937E
:10091000F10089918093F10089918093F100899190
:100920008093F10089918093F10089918093F10087
:1009300089918093F10089918093F100899180934E
:10094000F10089918093F10089918093F100899160
:100950008093F10089918093F10089918093F10057
:1009600089918093F10089918093F100899180931E
:10097000F10089918093F10089918093F100899130
:100980008093F10089918093F10089918093F10027
:1009900089918093F10089918093F10089918093EE
:1009A000F10089918093F10089918093F100899100
:1009B0008093F10089918093F10089918093F100F7
:1009C00089918093F10089918093F10089918093BE
:1009D000F10089918093F10089918093F1008991D0
:1009E0008093F10089918093F10089918093F100C7
:1009F00089918093F10089918093F100899180938E
:100A0000F10089918093F10089918093F10089919F
:100A10008093F10089918093F10089918093F10096
:100A200089918093F10089918093F1008091E80091
:100A300085FD02C05093E800621B7109A09312016A
:100A40003FBF04C0B4E040E45AE3A5E0611571057E
:100A500009F0F9CE80E001C08FEFDF91CF910895CA
:100A60009FB7F89480911201882341F084E080932D
:100A7000E9008AE38093E800109212019FBF089575
:100A80006091090170910A0180910B0190910C0114
:100A9000089580910D01089580910E01089580912F
:100AA0000F010895809111010895282F9FB7F894A0
:100AB00080911001882339F082E08093E9008091D1
:100AC000E80085FD03C09FBF8FEF089581EA809302
:100AD000F10080E28093F1001092F1001092F10099
:100AE0001092F1001092F10081E08093F1001092D9
:100AF000F1002093F1008AE38093E8009FBF80E03B
:100B000008951F920F920FB60F9211248F939F9307
:100B10008091E1001092E100982F83FF11C01092A4
:100B2000E90081E08093EB001092EC0082E1809379
:100B3000ED0088E08093F0001092100110921101F6
:100B400092FF13C080911001882379F080911201E7
:100B5000882359F0815080931201882331F484E076
:100B60008093E9008AE38093E8009F918F910F9032
:100B70000FBE0F901F9018951F920F920FB60F92F5
:100B800011240F931F932F933F934F935F936F9372
:100B90007F938F939F93AF93BF93EF93FF931092A5
:100BA000E9008091E80083FF3CC14091F100309161
:100BB000F1008091F100682F70E02091F100922FF8
:100BC00080E0682B792B8091F100A82FB0E0209174
:100BD000F100922F80E0A82BB92B1091F100009129
:100BE000F10082EF8093E800363009F05AC020E827
:100BF00031E0A90145505040F90137978591949112
:100C00008617970701F5FA01859194918A179B073A
:100C1000D1F49A012E5F3F4FF901659174912E5FD7
:100C20003F4FF9014491212F30E0902F80E0282B95
:100C3000392B2F3F310519F010F02FEF30E024173A
:100C400058F4422F09C0295F3F4F495F5F4FF1E0E1
:100C50002A3A3F0789F6E5C05EEF8091E800282F29
:100C600030E0C90185709070892BB9F322FDDCC09A
:100C7000342F413108F030E1232FCB0106C0FC01B5
:100C80000196E491E093F10021502223C1F7630F14
:100C9000711D431B5093E8004423F9F63031E9F20B
:100CA000C3C0353061F48EEF8093E8008091E80096
:100CB00080FFFCCF862F80688093E300B5C0393079
:100CC00051F5442309F0ADC0609310011092110159
:100CD000109212018EEF8093E80083EA91E021E008
:100CE0002093E900FC010196E491E093EB00EE23F0
:100CF00069F0AC014F5F5F4FFC0184918093EC0081
:100D0000CA010196FA0134913093ED002F5F25302E
:100D100039F78EE181C0383061F4403809F081C084
:100D20008091E80080FFFCCF809110018093F1005A
:100D300050C0313289F4413A09F073C08091E80023
:100D400080FFFCCFE9E0F1E081918093F10081E048
:100D5000E031F807C9F73DC03032A1F4413209F063
:100D600060C08091E80082FFFCCFE9E0F1E0809173
:100D7000F100819381E0E031F807C9F78BEF8093B0
:100D8000E80027C0323251F4413209F04AC0609382
:100D900011018091E80080FFFCCF1BC03323E9F4F0
:100DA0008091E80080FFFCCF423811F080E00DC058
:100DB000A093E9008091EB0090E025E0969587955F
:100DC0002A95E1F781701092E9008093F10010926A
:100DD000F1008EEF8093E80027C0313011F03330FE
:100DE00001F54230F1F4672BE1F42A2F2F77822F9F
:100DF00081508430B0F48EEF8093E8002093E900B6
:100E0000333079F089E18093EB0081E090E002C01B
:100E1000880F991F2A95E2F78093EA001092EA0062
:100E200003C081E28093EB00FF91EF91BF91AF91FE
:100E30009F918F917F916F915F914F913F912F91F2
:100E40001F910F910F900FBE0F901F9018950F9349
:100E50001F93DF93CF93CDB7DEB7C055D0400FB609
:100E6000F894DEBF0FBECDBF2DB73EB7285030403F
:100E70000FB6F8943EBF0FBE2DBFEDB7FEB731964B
:100E80008E010F5F1F4FADB7BEB712961C930E9326
:100E9000119720E031E03383228364837583868356
:100EA00097830E943F17BC012DB73EB7285F3F4F85
:100EB0000FB6F8943EBF0FBE2DBFC8010E940804B4
:100EC00080E0C05BDF4F0FB6F894DEBF0FBECDBF32
:100ED000CF91DF911F910F9108950F931F93DF938F
:100EE000CF93CDB7DEB7C055D0400FB6F894DEBF74
:100EF0000FBECDBF8E010F5F1F4F20E5D8011D92A1
:100F00002A95E9F700D000D000D0EDB7FEB73196B2
:100F1000ADB7BEB712961C930E93119726E031E041
:100F200033832283958384830E943F17BC01EDB7EE
:100F3000FEB736960FB6F894FEBF0FBEEDBFC801E0
:100F40000E94080480E0C05BDF4F0FB6F894DEBF5C
:100F50000FBECDBFCF91DF911F910F91089583E315
:100F600090E09093CD008093CC00E9ECF0E080819C
:100F700088618083EAECF0E0808186608083089558
:100F8000982F8091C80085FFFCCF9093CE000895E4
:100F90008091C80087FFFCCF8091CE00089502C0E9
:100FA0008091CE008091C80087FFFACF08952BED85
:100FB0003FE049E450E40E941A1520E030E044E3A9
:100FC00053E40E94BF13089520E030E044E353E46B
:100FD0000E941A152BED3FE049E450E40E94BF1334
:100FE0000895AF92BF92CF92DF92EF92FF920F934C
:100FF0001F93FC015A016B01273511F02335C9F409
:10100000BF01882777FD8095982F0E9429147B01C6
:101010008C01C601B50120E030E040E752E40E94B7
:10102000BF139B01AC01C801B7010E94F612905892
:1010300017C0BF01882777FD8095982F0E9429143B
:101040007B018C01C601B50120E030E040E752E4AD
:101050000E94BF139B01AC01C801B7010E94F612A8
:101060001F910F91FF90EF90DF90CF90BF90AF90C6
:1010700008952F923F924F925F926F927F928F923C
:101080009F92AF92BF92CF92DF92EF92FF920F9317
:101090001F93DF93CF9300D000D0CDB7DEB78C0184
:1010A0007B01FC0142815381648175818081918142
:1010B00026810E94F1070E94D7071B012C01F7012E
:1010C00042815381648175818081918126810E9452
:1010D000F1070E94D7073B014C01F8014185528579
:1010E000638574858781908525850E94F1070E941C
:1010F000D70769837A838B839C83F7014185528567
:10110000638574858781908525850E94F1070E94FB
:10111000D7077B018C01C401B301A20191010E9498
:10112000F51220E030E040E05FE30E941A150E94D3
:101130007D155B016C01C201B1010E94BC131B0152
:101140002C01C401B3010E94BC133B014C01C80136
:10115000B70129813A814B815C810E94F51220E020
:1011600030E040E05FE30E941A150E947D157B018C
:101170008C01C601B501A60195010E941A155B01FB
:101180006C01C201B101A40193010E941A15A801CA
:1011900097010E941A15A80197010E941A159B0138
:1011A000AC01C601B5010E94F6127B018C010E94C0
:1011B00087155B016C0160E070E080E89FE3A801A7
:1011C00097010E94F5120E9487159B01AC01C60190
:1011D000B5010E9469139B01AC010E94F61220E741
:1011E0003DE642EC5AE40E941A150F900F900F90C2
:1011F0000F90CF91DF911F910F91FF90EF90DF90B3
:10120000CF90BF90AF909F908F907F906F905F90A6
:101210004F903F902F9008952F923F924F925F9260
:101220006F927F928F929F92AF92BF92CF92DF92F6
:10123000EF92FF920F931F93DF93CF93CDB7DEB75B
:1012400064970FB6F894DEBF0FBECDBF8C017B0153
:10125000FC01428153816481758180819181268165
:101260000E94F1070E94D7076D837E838F83988742
:10127000F70142815381648175818081918126814A
:101280000E94F1070E94D70769837A838B839C832E
:10129000F801418552856385748587819085258510
:1012A0000E94F1070E94D7075B016C01F70141859D
:1012B0005285638574858781908525850E94F10715
:1012C0000E94D707A60195010E94F5127B018C01AF
:1012D000C8010E947D153B014C0169817A818B8197
:1012E0009C810E94BC131B012C016D817E818F812A
:1012F00098850E94BC13698B7A8B8B8B9C8B698140
:101300007A818B819C810E947D156D877E878F8776
:10131000988B6D817E818F8198850E947D1569876C
:101320007A878B879C87B701C8010E94BC135B0139
:101330006C01C401B301A20191010E941A153B0185
:101340004C0169897A898B899C892D853E854F85D9
:1013500058890E941A157B018C0169857A858B85D5
:101360009C85A20191010E941A15A60195010E9477
:101370001A159B01AC01C801B7010E94F5129B012F
:10138000AC01C401B3010E9469130E94E407649692
:101390000FB6F894DEBF0FBECDBFCF91DF911F9186
:1013A0000F91FF90EF90DF90CF90BF90AF909F9004
:1013B0008F907F906F905F904F903F902F90089507
:1013C0000F931F93082F0E94C807182F0E94C80769
:1013D00090E080531295107F810F801709F491E0FF
:1013E000892F1F910F9108952F923F924F925F92F4
:1013F0006F927F928F929F92AF92BF92CF92DF9225
:10140000EF92FF920F931F93DF93CF93CDB7DEB789
:101410006D970FB6F894DEBF0FBECDBF4C010E9492
:10142000C807282F19821F821E8222243324198A7A
:10143000188A442455241D821C82662477244BE498
:1014400050E05B834A8389C3822F992787FD90955B
:101450009D8F8C8F2C3221F40894611C711C72C3F7
:1014600095E06916710409F4ACC1E6E06E167104EA
:10147000D4F4F2E06F16710409F4AEC033E06316E1
:10148000710434F441E06416710409F05BC32AC0AE
:1014900053E06516710409F4A5C084E06816710470
:1014A00009F050C386C198E06916710409F4B1C20D
:1014B000E9E06E1671045CF4F6E06F16710409F44D
:1014C00085C237E06316710409F03CC387C249E066
:1014D0006416710409F4B8C25CE06516710409F081
:1014E00031C32CC38E819F8101969F838E8383306D
:1014F0009105A1F1843091053CF48130910589F08A
:10150000029709F01FC31FC0EE81FF81E530F1058E
:1015100009F441C0E530F1059CF1369709F012C39A
:1015200050C02C8D3D8D220F331F8C8D9D8D63E01F
:10153000880F991F6A95E1F7280F391F205E314007
:101540003B8F2A8FFFC24A8D5B8D405350408C8D5C
:101550009D8D480F591F5B8F4A8FF4C2EC8DFD8D16
:10156000EE0FFF1F8C8D9D8D43E0880F991F4A95CC
:10157000E1F7E80FF91FE05EF140F98FE88FE2C272
:10158000288D398D205330404C8D5D8D240F351FB3
:10159000398F288FD7C28C8D9D8D880F991F9F8B77
:1015A0008E8B8C8D9D8D23E0880F991F2A95E1F7F6
:1015B000EE89FF89E80FF91FE05EF140FF8BEE8BAB
:1015C000C1C22E893F89205330404C8D5D8D240F40
:1015D000351F3F8B2E8BB6C2213409F0B3C2F40104
:1015E0002487B0C20894211C311CF6E02F16310468
:1015F00009F473C027E022163104C4F432E0231644
:101600003104D9F143E02416310434F451E02516B5
:10161000310409F097C21FC083E028163104B9F1E4
:1016200094E02916310409F08DC247C0E8E02E1677
:10163000310409F479C0F8E02F1631040CF461C0CC
:1016400029E02216310409F483C03AE0231631045C
:1016500009F078C291C04C8D5D8D440F551F8C8D63
:101660009D8DA3E0880F991FAA95E1F7480F591F98
:10167000405E51405D8B4C8B65C28C899D89C097C3
:10168000EC8DFD8D8E0F9F1F9D8B8C8B5BC26C8DA7
:101690007D8D660F771F2C8D3D8DE3E0220F331F6C
:1016A000EA95E1F7620F731F605E7140882777FD4E
:1016B0008095982F0E94291479C02C8D3D8D205340
:1016C0003040B901882777FD8095982F205D3F4FE6
:1016D0003D8F2C8F0E94291463C04C8D5D8D40532B
:1016E0005040BA01882777FD8095982F405D5F4F65
:1016F0005D8F4C8F0E9429142DEC3CEC4CEC5DE38B
:101700004DC08C8D9D8DC097FC01BF01882777FD52
:101710008095982FF096FD8FEC8F0E9429142AE077
:1017200037ED43E25CE33AC02C8D3D8D20533040D1
:10173000B901882777FD8095982F205D3F4F3D8F19
:101740002C8F0E9429142FE632E143E85AE326C089
:101750004C8D5D8D40535040BA01882777FD8095B0
:10176000982F405D5F4F5D8F4C8F0E94291427E1B9
:1017700037EB41ED58E312C08C8D9D8DC097FC0175
:10178000BF01882777FD8095982FF096FD8FEC8F0D
:101790000E9429142CEA35EC47E257E30E941A15FF
:1017A0009B01AC01C801B7010E94F6127B018C01BC
:1017B000C9C12E3419F0233509F0C4C1F401238BBB
:1017C000C1C10894411C511CF5E04F16510409F4A5
:1017D00081C026E042165104D4F432E0431651048D
:1017E00009F442C043E04416510434F451E0451674
:1017F000510409F0A7C12AC083E04816510409F436
:1018000049C094E04916510409F09CC14DC0E9E07B
:101810004E16510409F495C0FAE04F1651045CF4D9
:1018200027E04216510409F465C038E0431651041C
:1018300009F088C173C04AE04416510409F495C008
:101840005BE04516510409F07DC1A3C0EC8DFD8D10
:1018500024E630E0E29FC001E39F900DF29F900DDF
:101860001124805C92411DC04A895B89405E5140D1
:101870008C8D9D8D880F991F2C8D3D8D63E0220FDF
:10188000331F6A95E1F7820F931F480F591F5B8B37
:101890004A8B58C18A899B89C097EC8DFD8D8E0F2C
:1018A0009F1F9B8B8A8B4EC16C8D7D8D660F771F22
:1018B0002C8D3D8D83E0220F331F8A95E1F7620F57
:1018C000731F605E7140882777FD8095982F0E9476
:1018D000291479C02C8D3D8D20533040B9018827C3
:1018E00077FD8095982F205D3F4F3D8F2C8F0E9474
:1018F000291463C04C8D5D8D40535040BA01882738
:1019000077FD8095982F405D5F4F5D8F4C8F0E94D3
:1019100029142DEC3CEC4CEC5DE34DC08C8D9D8D81
:10192000C097FC01BF01882777FD8095982FF0961E
:10193000FD8FEC8F0E9429142AE037ED43E25CE32F
:101940003AC02C8D3D8D20533040B901882777FD5A
:101950008095982F205D3F4F3D8F2C8F0E9429143A
:101960002FE632E143E85AE326C04C8D5D8D4053AB
:101970005040BA01882777FD8095982F405D5F4FD2
:101980005D8F4C8F0E94291427E137EB41ED58E31E
:1019900012C08C8D9D8DC097FC01BF01882777FDFB
:1019A0008095982FF096FD8FEC8F0E9429142CEAD9
:1019B00035EC47E257E30E941A159B01AC01C601C2
:1019C000B5010E94F6125B016C01BCC0253419F010
:1019D000273509F0B7C0F401228FB4C088899989EE
:1019E000880F991F48895989A3E0440F551FAA956C
:1019F000E1F7480F591F598B488B2E3209F4A2C0CA
:101A00008C8D9D8D480F591F40535040598B488BEA
:101A100099C09981992321F4E1E0E9831986188618
:101A200088859985F3E0880F991FFA95E1F7288555
:101A30003985220F331F280F391F4C8D5D8D240FE0
:101A4000351F398728877EC08C819D8101969D83B3
:101A50008C8383309105A1F1843091053CF4813071
:101A6000910589F0029709F06DC01FC0EC81FD81DE
:101A7000E530F10509F441C0E530F1059CF13697F8
:101A800009F060C050C02C8D3D8D220F331F8C8D0E
:101A90009D8D63E0880F991F6A95E1F7280F391F24
:101AA000205E31403F872E874DC04E855F85405375
:101AB00050408C8D9D8D480F591F5F874E8742C0C7
:101AC000EC8DFD8DEE0FFF1F8C8D9D8D43E0880FFB
:101AD000991F4A95E1F7E80FF91FE05EF140FD8795
:101AE000EC8730C02C853D85205330404C8D5D8D7A
:101AF000240F351F3D872C8725C08C8D9D8D880F29
:101B0000991F9B878A878C8D9D8D23E0880F991F55
:101B10002A95E1F7EA85FB85E80FF91FE05EF140C1
:101B2000FB87EA870FC02A853B85205330404C8DC8
:101B30005D8D240F351F3B872A8704C0213411F4A3
:101B4000F401238F2A813B814C8D5D8D242735271D
:101B50003B832A830E94C807282F2A3209F074CCBD
:101B60008A810E94E009882389F12A8D3B8DF40146
:101B700031832083488D598D538342838E899F8979
:101B8000958384832C893D8936872587E786F08A6B
:101B9000018B128B2A893B89358B248BA68AB78AC5
:101BA000C08ED18E2889398934A323A34E855F85C1
:101BB000578346838C859D85918780872A853B85C1
:101BC0003387228748855985568F458F80E06D96EB
:101BD0000FB6F894DEBF0FBECDBFCF91DF911F913E
:101BE0000F91FF90EF90DF90CF90BF90AF909F90BC
:101BF0008F907F906F905F904F903F902F900895BF
:101C00004F925F926F927F928F929F92AF92BF920C
:101C1000CF92DF92EF92FF920F931F93CF93DF93B8
:101C20008C010E94C807482FE2E56E2E712C4424D7
:101C30005524AA24BB24CC24DD24EE24FF24C0E0B8
:101C4000D0E0ADC0842E992487FC90944C3211F4DE
:101C50002196A0C0C530D10509F463C0C630D105B6
:101C60009CF4C230D105A1F1C330D1052CF4C130B0
:101C7000D10509F08FC019C0C330D10579F1C43046
:101C8000D10509F087C048C0C730D10509F461C04B
:101C9000C730D1050CF458C0C830D10509F471C063
:101CA000C930D10509F076C071C0442021F4442424
:101CB0004394AA24BB24C50173E0880F991F7A9529
:101CC000E1F7AA0CBB1CA80EB91EA80CB91C62C077
:101CD000443509F05FC0F801478F5CC0C4010E9421
:101CE000A6038AE090E00E94A6038DE090E00E94A7
:101CF000A603552021F455245394CC24DD24C60199
:101D000053E0880F991F5A95E1F7CC0CDD1CC80EE3
:101D1000D91EC80CD91C3EC04D34E1F5F80142A3D0
:101D200039C0C701880F991F23E0EE0CFF1C2A95CC
:101D3000E1F7E80EF91E4E3269F1E80CF91C80ED6E
:101D40009FEFE80EF91E26C04E3421F5F80145A399
:101D500021C0F80186A197A19C01B3E0220F331F97
:101D6000BA95E1F7880F991F280F391F37A326A3CB
:101D70004E3281F020533040280D391D37A326A361
:101D800009C04B3439F4F80140A704C0413411F4C0
:101D9000F801448F682479240E94C807482F4A32EA
:101DA00009F050CF862D0E94E009882349F0F80100
:101DB000B68EA58ED1A2C0A2F4A2E3A217A216A24B
:101DC00080E0DF91CF911F910F91FF90EF90DF9016
:101DD000CF90BF90AF909F908F907F906F905F90CB
:101DE0004F900895EF92FF920F931F93CF93DF933D
:101DF000EC01EE24EA94FF24FA942A9A0E94C80780
:101E00008432D9F70E94C807182F0E94C8071734D8
:101E1000A1F7803591F70E94C807182F0E94C807C4
:101E2000082F0E94C807123549F40D3489F4833411
:101E300079F4CE010E94F409E82E0AC0163541F467
:101E4000043531F4873421F4CE010E94000EF82EBF
:101E5000EE2099F6FF2089F62A98DF91CF911F9105
:101E60000F91FF90EF9008950E94C8071816E4F7AD
:101E7000992787FD90950E94A603F6CF0F931F9395
:101E80008C010E94AF078CE084B915B8F80111826B
:101E9000108213821282158214821686158680E0C3
:101EA00090E0A0E0B0E08787908BA18BB28B158A81
:101EB000148A868B978BA08FB18F1782168211861A
:101EC00010861386128614A213A217A216A2168ECB
:101ED000158E11A210A21F910F910895A1E1B0E0FB
:101EE000E4E7FFE00C94EE153C017F876E876A0102
:101EF000FC0117821682838181FD03C06FEF7FEFA3
:101F00006FC39E012F5F3F4F398B288BF3012381D5
:101F1000EE85FF8523FD859123FF8191FF87EE8765
:101F2000882309F45AC3853251F4EE85FF8523FDD9
:101F3000859123FF8191FF87EE87853229F490E018
:101F4000B3010E941317E2CF982F10E08824992440
:101F50001032B0F49B3269F09C3228F4903251F088
:101F6000933271F40BC09D3239F0903349F4116013
:101F700028C01260146025C0186023C0106121C001
:101F800017FD2AC0892F80538A3078F416FF06C0C7
:101F9000FAE09F9E902C1124980E13C03AE0839E85
:101FA000802C1124880E10620CC09E3221F416FD84
:101FB00014C3106406C09C3611F4106802C0983631
:101FC00059F4EE85FF8523FD959123FF9191FF87BD
:101FD000EE87992309F0BCCF892F8554833020F4F4
:101FE000812F8061905E07C0892F8556833008F06D
:101FF0009FC1812F8F7E86FD02C076E0972E6FE312
:10200000F62EF822953619F4F0E4FF2A07C096362A
:1020100019F420E8F22A02C091109A94F7FE0AC03F
:102020003BE3391518F45CE3B52E02C0B92CB39428
:1020300027E009C047E0491520F4BB2447E0942E6F
:10204000F7CF292DBB24C60104969D878C87F60106
:102050006081718182819381AE014F5F5F4F0B2D53
:102060000E9425166C010981202E332400FF04C034
:1020700003FD02C01DE209C0F1FE02C01BE205C063
:10208000F2FC02C010E001C010E2C1018C7090703F
:10209000892BB9F1112311F483E001C084E0881584
:1020A00010F088240AC0881AF3FC07C080E290E090
:1020B000B3010E9413178A94C9F7112329F0812FC5
:1020C00090E0B3010E94131723FE03C002E412E064
:1020D0000EC006E412E00BC0E114F10409F08052D6
:1020E00090E0B3010E9413170F5F1F4F05C0EF2C44
:1020F000FF24F0E1EF22FF24F8018491882361F7A7
:1021000014C1F7FE12C0BC0C24FE04C08A818133C6
:1021100009F4BA941B141CF0BB24B3942DC0F8E04E
:10212000FB1550F538E0B32E27C0F6FC25C0892DED
:1021300090E08C159D054CF02CEFC2162FEFD206C7
:1021400024F030E8F32A01C09A94992049F0E2E0A3
:10215000F0E0EC0FFD1FE90DF11D80818033A1F34C
:10216000F7FE0AC0B92CB394892D90E0C816D906A1
:1021700014F0992401C09C18F7FC03C025E030E05E
:1021800009C01C141D041CF021E030E003C09601BE
:102190002F5F3F4F112311F02F5F3F4F992029F000
:1021A000892D90E00196280F391F882D90E028177F
:1021B000390714F0882401C0821A4F2C5524C2011B
:1021C00089709070892B39F008C080E290E0B301EB
:1021D0000E9413178A948820C1F7112329F0812FB8
:1021E00090E0B3010E94131743FE07C008C080E3CC
:1021F00090E0B3010E9413178A948820C1F7F7FE7C
:1022000046C08601D7FE02C000E010E076010894C7
:10221000E11CF11CE01AF10A41E050E04C0F5D1F97
:10222000E40EF51E26014B185108892D90E0AA24D2
:10223000BB24A81AB90A5FEF0F3F150729F48EE2F5
:1022400090E0B3010E941317C016D10634F0401677
:1022500051061CF4F701808101C080E30150104059
:102260000894E11CF11C0A151B052CF090E0B30149
:102270000E941317E0CF0C151D0539F49A8196338F
:1022800018F4953311F424FE81E390E04BC08A8169
:10229000813309F00F7E90E0B3010E94131799205B
:1022A000A1F08EE290E0B3010E94131712E0E1E08A
:1022B000F0E0EC0FFD1FE10FF11D1F5F808190E04A
:1022C000B3010E9413179A9491F744FC03C085E66A
:1022D00090E002C085E490E0B3010E941317D7FCA0
:1022E00005C0C114D10441F404FF06C0D094C194C8
:1022F000D108D3948DE201C08BE290E0B3010E943B
:10230000131780E305C08F5F26EF3FEFC20ED31E89
:102310003AE0C316D104BCF790E0B3010E94131752
:10232000C601C096B3010E941317CC84DD8452C14C
:10233000933631F0933799F0933509F059C023C0A3
:10234000F601808189835E010894A11CB11C22E002
:1023500030E0C20ED31E21E0E22EF12C12C0F601B5
:10236000A080B18016FD03C06FEF7FEF02C0692D22
:1023700070E022E030E0C20ED31EC5010E940817B3
:102380007C011F7713C0F601A080B18016FD03C049
:102390006FEF7FEF02C0692D70E022E030E0C20EE7
:1023A000D31EC5010E94FD167C01106813FF07C0F3
:1023B0001BC080E290E0B3010E9413178A94882D1D
:1023C00090E0E816F906A8F30FC0F50117FD859116
:1023D00017FF81915F0190E0B3010E9413178110F4
:1023E0008A940894E108F108E114F10471F7F2C04D
:1023F000943611F0993689F517FF08C0F60120814F
:1024000031814281538184E090E00AC0F6018081ED
:1024100091819C01442737FD4095542F82E090E044
:10242000C80ED91E9FE6F92EF12257FF09C050951C
:102430004095309521953F4F4F4F5F4F90E8F92AD7
:10244000CA01B901AE014F5F5F4F2AE030E00E9440
:102450006317E82EE889EE1A41C0953721F41F7EF4
:102460002AE030E01CC0197F9F3661F0903720F4DD
:10247000983509F0B2C00FC0903739F0983709F09D
:10248000ACC004C028E030E00AC0106114FD146044
:1024900020E130E004C014FD166020E132E017FFB7
:1024A00008C0F601608171818281938144E050E02F
:1024B00008C0F60180819181BC0180E090E042E09B
:1024C00050E0C40ED51EAE014F5F5F4F0E946317F0
:1024D000E82E5889E51A8FE7F82EF122F6FE0BC098
:1024E0008EEFF822E91438F4F4FE07C0F2FC05C0C0
:1024F0009FEEF92202C01E2D01C0192DF4FE0DC061
:10250000FE01EE0DF11D8081803319F4E9EEFE220B
:1025100008C01F5FF2FE05C003C08F2D867809F04A
:102520001F5F0F2DF3FC14C0F0FE0FC0181510F044
:102530009E2C0BC09E2C980C911A182D06C080E280
:1025400090E0B3010E9413171F5F1815C0F304C079
:10255000181510F4811A01C0882404FF0FC080E30D
:1025600090E0B3010E94131702FF1DC001FD03C0DC
:1025700088E790E00EC088E590E00BC0802F867859
:1025800091F001FF02C08BE201C080E2F7FC8DE216
:1025900090E0B3010E94131706C080E390E0B301FE
:1025A0000E9413179A94E914C0F3EA94E1E0F0E072
:1025B000EC0FFD1FEE0DF11D808190E0B3010E9434
:1025C0001317EE2091F706C080E290E0B3010E945D
:1025D00013178A948820C1F799CCF301668177811B
:1025E000CB016196E2E10C940A165058BB27AA274A
:1025F0000ED0CEC197D130F09CD120F031F49F3F66
:1026000011F41EF467C10EF4E095E7FB5DC1E92FFC
:10261000E1D180F3BA17620773078407950718F0B2
:1026200071F49EF5F9C10EF4E0950B2EBA2FA02D92
:102630000B01B90190010C01CA01A0011124FF276F
:10264000591B99F0593F50F4503E68F11A16F0406A
:10265000A22F232F342F4427585FF3CF4695379569
:102660002795A795F0405395C9F77EF41F16BA0B2E
:10267000620B730B840BBAF09150A1F0FF0FBB1FDC
:10268000661F771F881FC2F70EC0BA0F621F731F25
:10269000841F48F4879577956795B795F7959E3F82
:1026A00008F0B3CF9395880F08F09927EE0F979510
:1026B0008795089537D158F080E891E009F49EEFAE
:1026C00038D128F040E851E059F45EEF09C002C16A
:1026D000A3C1E92FE0787ED168F3092E052AC1F362
:1026E000261737074807590738F00E2E07F8E02558
:1026F00069F0E025E0640AC0EF6307F8009407FA88
:10270000DB01B9019D01DC01CA01AD01EF9346D0A7
:102710003FD10AD05F91552331F02BED3FE049E4E2
:1027200050FD49EC63CF0895DF93DD27B92FBF77C4
:1027300040E85FE31616170648075B0710F4D92F29
:1027400072D19F938F937F936F931FD2EEE2F1E04C
:10275000C4D01ED12F913F914F915F9177D1DD234E
:1027600049F09058A2EA2AED3FE049EC5FE3D078C7
:102770005D274DDFDF910CC1E4D0E3951AC10CD089
:1027800007C1D7D040F0CED030F021F45F3F19F030
:102790009BC0511142C19EC01DD198F39923C9F32A
:1027A0005523B1F3951B550BBB27AA276217730757
:1027B000840738F09F5F5F4F220F331F441FAA1F0B
:1027C000A9F333D00E2E3AF0E0E830D091505040CB
:1027D000E695001CCAF729D0FE2F27D0660F771F79
:1027E000881FBB1F261737074807AB07B0E809F05B
:1027F000BB0B802DBF01FF2793585F4F2AF09E3FF0
:10280000510568F061C009C15F3FECF3983EDCF30D
:10281000869577956795B795F7959F5FC9F7880F68
:10282000911D9695879597F90895E1E0660F771FBA
:10283000881FBB1F621773078407BA0720F0621B4B
:10284000730B840BBA0BEE1F88F7E0950895E8949C
:1028500009C097FB3EF490958095709561957F4FE8
:102860008F4F9F4F9923A9F0F92F96E9BB27939596
:10287000F695879577956795B795F111F8CFFAF4A6
:10288000BB0F11F460FF1BC06F5F7F4F8F4F9F4FD7
:1028900016C0882311F096E911C0772321F09EE835
:1028A000872F762F05C0662371F096E8862F70E09B
:1028B00060E02AF09A95660F771F881FDAF7880F75
:1028C0009695879597F9089597F99F6780E870E046
:1028D00060E008959FEF80EC0895DF93CF931F93FE
:1028E0000F93FF92EF92DF927B018C01689405C0F9
:1028F000DA2EEF01ABD0FE01E894A5912591359138
:1029000045915591AEF3EF0182DEFE019701A801DA
:10291000DA9479F7DF90EF90FF900F911F91CF91AC
:10292000DF91089500240A94161617061806090662
:10293000089500240A941216130614060506089535
:10294000C9CF50D0E8F3E894E0E0BB279F57F0F000
:102950002AED3FE049EC06C0EE0FBB0F661F771F64
:10296000881F28F0B23A62077307840728F0B25A2A
:10297000620B730B840BE3959A9572F7803830F4F1
:102980009A95BB0F661F771F881FD2F7904802C128
:10299000092E0394000C11F4882352F0BB0F40F46D
:1029A000BF2B11F460FF04C06F5F7F4F8F4F9F4FAD
:1029B0000895EF93E0FF06C0A2EA2AED3FE049EC5C
:1029C0005FEB25DEE5DF0F90039401FC9058EBE50B
:1029D000F1E0F3C057FD9058440F551F59F05F3F89
:1029E00071F04795880F97FB991F61F09F3F79F031
:1029F00087950895121613061406551FF2CF4695B3
:102A0000F1DF08C0161617061806991FF1CF869534
:102A10007105610508940895E894BB276627772718
:102A2000CB0197F908959B01AC0160E070E080E86C
:102A30009FE3A5CE0BD0ACCF75DF28F07ADF18F07E
:102A4000952309F041CF46CF1124E7CFC3DFA0F390
:102A5000959FD1F3950F50E0551F629FF001729F33
:102A6000BB27F00DB11D639FAA27F00DB11DAA1F52
:102A7000649F6627B00DA11D661F829F2227B00D9F
:102A8000A11D621F739FB00DA11D621F839FA00D2A
:102A9000611D221F749F3327A00D611D231F849F7A
:102AA000600D211D822F762F6A2F11249F575040D1
:102AB0008AF0E1F088234AF0EE0FFF1FBB1F661F6C
:102AC000771F881F91505040A9F79E3F510570F025
:102AD000FBCEA3CF5F3FECF3983EDCF38695779572
:102AE0006795B795F795E7959F5FC1F7FE2B880F20
:102AF000911D9695879597F908959F9322DF0F90E2
:102B000007FCEE5F56CF11F40EF4E4CE41C06ADF4D
:102B1000D0F39923D9F3CEF39F57550B87FF46D0B7
:102B20000024A0E640EA900180585695979528F435
:102B3000805C660F771F881F20F02617370748072D
:102B400030F4621B730B840B202931294A2BA69584
:102B500017940794202531254A2758F7660F771FC9
:102B6000881F20F026173707480730F4620B730BD5
:102B7000840B200D311D411DA09581F7B901842FD3
:102B80009158880F9695879508959B01AC0152CF77
:102B90009F3F31F0915020F4879577956795B795D1
:102BA000880F911D9695879597F9089591505040FB
:102BB000660F771F881FD2F708959F938F937F9397
:102BC0006F93FF93EF939B01AC0134DFEF91FF9183
:102BD00084DE2F913F914F915F912CCF2F923F92A6
:102BE0004F925F926F927F928F929F92AF92BF921D
:102BF000CF92DF92EF92FF920F931F93CF93DF93C9
:102C0000CDB7DEB7CA1BDB0B0FB6F894DEBF0FBE25
:102C1000CDBF09942A88398848885F846E847D8472
:102C20008C849B84AA84B984C884DF80EE80FD8074
:102C30000C811B81AA81B981CE0FD11D0FB6F894EA
:102C4000DEBF0FBECDBFED010895283008F027E0AC
:102C50003327DA01990F311D87FD916000966105D8
:102C6000710539F432602E5F3D9330E32A95E1F728
:102C700008959F3F30F080387105610509F03C5F91
:102C80003C5F3D93913008F08068911DDF93CF93B6
:102C90001F930F93FF92EF92192F987F9695E92F2C
:102CA00096959695E90FFF27EC55FD4F9927332709
:102CB000EE24FF24A701E70105900894079428F467
:102CC000360FE71EF81E491F511D660F771F881F1C
:102CD000991F0694A1F70590079428F4E70EF81EB3
:102CE000491F561FC11D770F881F991F661F069425
:102CF000A1F70590079428F4F80E491F561FC71F27
:102D0000D11D880F991F661F771F0694A1F70590A4
:102D1000079420F4490F561FC71FD81F990F661F2D
:102D2000771F881F0694A9F784911095177041F0BA
:102D3000D695C79557954795F794E7941A95C1F797
:102D4000EAE4F2E0689415901591359165919591BA
:102D500005907FE27395E118F10A430B560BC90BFE
:102D6000D009C0F7E10CF11E431F561FC91FD01D2B
:102D70007EF4703311F48A95E6CFE894015030F078
:102D8000080F0AF40027021708F4202F2395022FBA
:102D90007A3328F079E37D932A95E9F710C07D9383
:102DA0002A9589F606949795679537951795179400
:102DB000E118F10A430B560BC90BD00998F0239583
:102DC0007E9173957A3308F070E37C932013B8F703
:102DD0007E9170617D9330F0839571E37D9370E314
:102DE0002A95E1F71124EF90FF900F911F91CF9159
:102DF000DF91992787FD90950895FC01059061501A
:102E000070400110D8F7809590958E0F9F1F089500
:102E1000FC016150704001900110D8F780959095A9
:102E20008E0F9F1F08950F931F93CF93DF938C01F5
:102E3000EB018B8181FF1BC082FF0DC02E813F8182
:102E40008C819D812817390764F4E881F981019309
:102E5000F983E88306C0E885F985802F0995892BD9
:102E600031F48E819F8101969F838E8302C00FEF84
:102E70001FEFC801DF91CF911F910F910895AEE030
:102E8000B0E0E5E4F7E10C94FC150D891E8986E0BD
:102E90008C831A8309838FEF9FE79E838D839E0126
:102EA000275E3F4FCE0101966F89788DA9010E9460
:102EB0006E0F2F813885020F131FF80110822E9696
:102EC000E4E00C941816FA01AA27283051F12031B9
:102ED00081F1E8946F936E7F6E5F7F4F8F4F9F4FAE
:102EE000AF4FB1E03ED0B4E03CD0670F781F891FF0
:102EF0009A1FA11D680F791F8A1F911DA11D6A0FBE
:102F0000711D811D911DA11D20D009F468943F9170
:102F10002AE0269F11243019305D3193DEF6CF016F
:102F20000895462F4770405D4193B3E00FD0C9F735
:102F3000F6CF462F4F70405D4A3318F0495D31FDA2
:102F40004052419302D0A9F7EACFB4E0A6959795F5
:102F5000879577956795BA95C9F7009761057105CB
:102F600008959B01AC010A2E069457954795379515
:102F70002795BA95C9F7620F731F841F951FA01D6F
:062F80000895F894FFCF54
:102F860025352E38670025640000E10000000008A2
:00000001FF
